{
  "fileName": "BoxV3.sol",
  "contractName": "BoxV3",
  "source": "// contracts/Box.sol\n// SPDX-License-Identifier: MIT\npragma solidity ^0.6.0;\n\n\ncontract BoxV3 {\n    uint256 private value;\n    bool private flag;\n    mapping (uint => bool) par;\n\n    struct Foo {\n        bool x;\n    }\n\n    enum Direction { UP, DOWN }\n\n    Foo private foo;\n    Direction private dir;\n    uint[] private intArray;\n    Direction[] private dirArray;\n    bytes8 ocho;\n    uint[10] enteritos;\n\n\n    // Emitted when the stored value changes\n    event ValueChanged(uint256 newValue);\n\n    // Stores a new value in the contract\n    function store(uint256 newValue) public {\n        par[newValue] = true;\n    }\n\n    // Reads the last stored value\n    function retrieve() public view returns (uint256) {\n        return value;\n    }\n\n    function set() public returns (bool) {\n        flag = !flag;\n        return flag;\n    }\n\n    function get() public view returns (bool) {\n        return flag;\n    }\n}\n",
  "sourcePath": "contracts/BoxV3.sol",
  "abi": [
    {
      "anonymous": false,
      "inputs": [
        {
          "indexed": false,
          "internalType": "uint256",
          "name": "newValue",
          "type": "uint256"
        }
      ],
      "name": "ValueChanged",
      "type": "event"
    },
    {
      "inputs": [],
      "name": "get",
      "outputs": [
        {
          "internalType": "bool",
          "name": "",
          "type": "bool"
        }
      ],
      "stateMutability": "view",
      "type": "function"
    },
    {
      "inputs": [],
      "name": "retrieve",
      "outputs": [
        {
          "internalType": "uint256",
          "name": "",
          "type": "uint256"
        }
      ],
      "stateMutability": "view",
      "type": "function"
    },
    {
      "inputs": [],
      "name": "set",
      "outputs": [
        {
          "internalType": "bool",
          "name": "",
          "type": "bool"
        }
      ],
      "stateMutability": "nonpayable",
      "type": "function"
    },
    {
      "inputs": [
        {
          "internalType": "uint256",
          "name": "newValue",
          "type": "uint256"
        }
      ],
      "name": "store",
      "outputs": [],
      "stateMutability": "nonpayable",
      "type": "function"
    }
  ],
  "bytecode": "0x608060405234801561001057600080fd5b506101a3806100206000396000f3fe608060405234801561001057600080fd5b506004361061004c5760003560e01c80632e64cec1146100515780636057361d1461006f5780636d4ce63c1461009d578063b8e010de146100bd575b600080fd5b6100596100dd565b6040518082815260200191505060405180910390f35b61009b6004803603602081101561008557600080fd5b81019080803590602001909291905050506100e6565b005b6100a5610115565b60405180821515815260200191505060405180910390f35b6100c561012c565b60405180821515815260200191505060405180910390f35b60008054905090565b60016002600083815260200190815260200160002060006101000a81548160ff02191690831515021790555050565b6000600160009054906101000a900460ff16905090565b6000600160009054906101000a900460ff1615600160006101000a81548160ff021916908315150217905550600160009054906101000a900460ff1690509056fea2646970667358221220c316d5f90a40b6f69f7a09acdaa979e946199ba338a9c91c283087773e831da764736f6c634300060c0033",
  "compiler": {
    "name": "solc",
    "version": "0.6.12+commit.27d51765.Emscripten.clang",
    "optimizer": {
      "enabled": false,
      "runs": 200
    },
    "evmVersion": "petersburg"
  }
}