{
  "fileName": "BoxV3.sol",
  "contractName": "BoxV3",
  "source": "// contracts/Box.sol\n// SPDX-License-Identifier: MIT\npragma solidity ^0.6.0;\n\n\ncontract BoxV3 {\n    uint256 private value;\n    bool private readOnly;\n\n    // Emitted when the stored value changes\n    event ValueChanged(uint256 newValue);\n    event ReadOnlyChanged(bool readOnly);\n\n    // Stores a new value in the contract\n    function store(uint256 newValue) public {\n        require(! readOnly);\n        value = newValue;\n        emit ValueChanged(newValue);\n    }\n\n    // Reads the last stored value\n    function retrieve() public view returns (uint256) {\n        return value;\n    }\n\n    // Sets readability\n    function setReadOnly(bool _readOnly) public returns (bool) {\n        readOnly = _readOnly;\n        emit ReadOnlyChanged(readOnly);\n        return readOnly;\n    }\n}\n",
  "sourcePath": "contracts/BoxV3.sol",
  "abi": [
    {
      "anonymous": false,
      "inputs": [
        {
          "indexed": false,
          "internalType": "bool",
          "name": "readOnly",
          "type": "bool"
        }
      ],
      "name": "ReadOnlyChanged",
      "type": "event"
    },
    {
      "anonymous": false,
      "inputs": [
        {
          "indexed": false,
          "internalType": "uint256",
          "name": "newValue",
          "type": "uint256"
        }
      ],
      "name": "ValueChanged",
      "type": "event"
    },
    {
      "inputs": [],
      "name": "retrieve",
      "outputs": [
        {
          "internalType": "uint256",
          "name": "",
          "type": "uint256"
        }
      ],
      "stateMutability": "view",
      "type": "function"
    },
    {
      "inputs": [
        {
          "internalType": "bool",
          "name": "_readOnly",
          "type": "bool"
        }
      ],
      "name": "setReadOnly",
      "outputs": [
        {
          "internalType": "bool",
          "name": "",
          "type": "bool"
        }
      ],
      "stateMutability": "nonpayable",
      "type": "function"
    },
    {
      "inputs": [
        {
          "internalType": "uint256",
          "name": "newValue",
          "type": "uint256"
        }
      ],
      "name": "store",
      "outputs": [],
      "stateMutability": "nonpayable",
      "type": "function"
    }
  ],
  "bytecode": "0x608060405234801561001057600080fd5b506101ed806100206000396000f3fe608060405234801561001057600080fd5b50600436106100415760003560e01c806310ea6b34146100465780632e64cec11461008c5780636057361d146100aa575b600080fd5b6100746004803603602081101561005c57600080fd5b810190808035151590602001909291905050506100d8565b60405180821515815260200191505060405180910390f35b610094610153565b6040518082815260200191505060405180910390f35b6100d6600480360360208110156100c057600080fd5b810190808035906020019092919050505061015c565b005b600081600160006101000a81548160ff0219169083151502179055507ff659e41df425df7ce3e7731c79d3cdcb0e9532555762935e04edb7da01168fb1600160009054906101000a900460ff1660405180821515815260200191505060405180910390a1600160009054906101000a900460ff169050919050565b60008054905090565b600160009054906101000a900460ff161561017657600080fd5b806000819055507f93fe6d397c74fdf1402a8b72e47b68512f0510d7b98a4bc4cbdf6ac7108b3c59816040518082815260200191505060405180910390a15056fea2646970667358221220db23413122abe607f6b025404693789e1126f6cc4254c80d2720595c8b520edc64736f6c634300060c0033",
  "compiler": {
    "name": "solc",
    "version": "0.6.12+commit.27d51765.Emscripten.clang",
    "optimizer": {
      "enabled": false,
      "runs": 200
    },
    "evmVersion": "petersburg"
  }
}